:100000000C94762E0C94A72E0C94A72E0C94A72E4D
:100010000C94A72E0C94A72E0C94A72E0C94A72E0C
:100020000C94A72E0C94A72E0C94A72E0C94A72EFC
:100030000C94A72E0C94A72E0C94ABBD0C94D585D4
:100040000C94A72E0C94879F0C94A72E0C94A72E8B
:100050000C94A72E0C94A72E0C94A72E0C947B9096
:100060000C94A72E0C943D7E0C94A72E0C94A72ED6
:100070000C94A72E0C94A72E0C94A72E0C94A72EAC
:100080000C94A72E0C94A72E0C94A72E0C94A72E9C
:100090000C94F97D0C94A72E0C94A72E0C94A72EEB
:1000A0000C94A72E0C94A72E0C948C820C94A72E43
:1000B0000C94A72E0C946E820C94A72E0C94A72E51
:1000C0000C94A72E0C94A72E0C94A72E0C94F081C0
:1000D0000C94A72E0C94A72E0C94A72E0C94A72E4C
:1000E0000C94A72E9790A590B390C090D290D990E1
:1000F000FB901191DC92DE92DC92DE92DC92DE9239
:10010000E092E2922AF42AF42DF42AF42DF430F449
:1001100033F4AC014A010E0294016E0198013002E1
:10012000D4011802D0010602F4017601CE018E013D
:100130004202C8012E02B001F201E6019001FE0167
:10014000F201D801F801E80186010402FC014A022B
:1001500038024802BA01F601E401D2014E02A601BA
:10016000880174014C021A02C20100022A027C01B9
:100170005801360260016801FA01A201E0012A0279
:100180002002220224028A01C001EE011202C601ED
:10019000D60128025001EC01A4015401620126029B
:1001A0004002D601B2013E022C02140280013C0240
:1001B000AE013402100202027E0170019E01CA01EA
:1001C0007801084AD73B3BCE016E84BCBFFDC12FEE
:1001D0003D6C74319ABD56833DDA3D00C77F11BE38
:1001E000D9E4BB4C3E916BAAAABE000000803F053B
:1001F000A84CCDB2D44EB93836A9020C50B991866C
:1002000088083CA6AAAA2ABE000000803F076342D5
:1002100036B79BD8A71A39685618AEBAAB558C1D9D
:100220003CB7CC5763BD6DEDFD753EF6177231BF1F
:10023000000000803F08000000BE922449123EAB3F
:10024000AAAA2ABECDCCCC4C3E00000080BEABAAF0
:10025000AAAA3E00000000BF000000803F0000008E
:100260000000084178D3BB4387D1133D190E3CC32E
:10027000BD4282AD2B3E68EC8276BED98FE1A93EAD
:100280004C80EFFFBE01C4FF7F3F00000000000074
:100290000D94A4100D94FC030D9406340D94927AE1
:1002A0000D9472290D9405570D948E290D947A287A
:1002B0000D94A9270D944C560D946A590D94401332
:1002C0000D94B3270D9498290D9468460D948428B5
:1002D0000D94B7270D9466280D94FF450D943A04AC
:1002E0000D94084B0D94A2000D949E270D949B0431
:1002F0000D94284A0D948E000D94A5270D94184B4B
:100300000D94F54A0D9481580D94C5120D94D7158E
:100310000D94BB210D9442290D9461280D9405156F
:100320000D9492150D9412570D941E040D94990F6F
:100330000D9440040D948E560D9466120D94724ADD
:100340000D945C120D94C1270D9484290D94842181
:100350000D9479070D94E3270D94EE030D94BA4A9A
:100360000D945E150D94BB290D9432570D946C10AD
:100370000D9498070D9411220D9427570D9428473A
:100380000D9447290D9494270D9401480D946029EC
:100390000D9424150D94444A0D9475280D94F4146D
:1003A0000D9470040D9414210D9454040D94D929C6
:1003B0000D9494150D941E560D94D9270D94A147B4
:1003C0000D94C5270D9469110D9481200D947F150E
:1003D0000D94C5150D946B280D947A290D944C2914
:1003E0000D94E1470D94DE140D948D040D94621F5D
:1003F0000D94B1150D94BD270D94271F0D948D15E7
:100400000D949A270D94994A0D941E1F0D948704FC
:100410000D947F280D9495460D9436120D940C047E
:100420000D94A44A0D9456290D945D480D94EA4606
:100430000D9462040D9490270D94BC000D94491204
:100440000D94CB270D94CF270D94D3270D94A72976
:100450000D946A290D94D8270D94CF290D942E154B
:100460000D9446040D9423120D94AF4A0D94AF27BA
:100470000D94A41E0D94DF270D94C54A0D94C52933
:100480000D94B1290D9417150D94E30F0D94E827E1
:100490000D94741E0D94D51E0D94A1270D94682102
:1004A0000D9470280D945E470D9415786E616E0062
:1004B000696E66004E414E494E495459494E46CDEB
:1004C000CCCC3D0AD7233C17B7D13877CC2B32950B
:1004D00095E6241FB14F0A000020410000C84200E9
:1004E000401C4620BCBE4CCA1B0E5AAEC59D7400B3
:1004F000407A10F35A00A0724E18090010A5D4E8F3
:100500000000E87648170000E40B54020000CA9A85
:100510003B000000E1F505000080969800000040D7
:10052000420F000000A0860100000010270000001C
:1005300000E803000000006400000000000A000062
:100540000000000100000000002C76D888DC674F16
:100550000823DFC1DFAE59E1B1B796E5E3E453C646
:100560003AE651997696E8E6C28426EB898C9B623E
:10057000ED407C6FFCEFBC9C9F40F2BAA56FA5F4E8
:1005800090055A2AF75C936B6CF9676DC11BFCE010
:10059000E40D47FEF520E6B500D0ED902E03009463
:1005A0003577050080841E080000204E0A000000F8
:1005B000C80C333333330F986E12831141EF8D2102
:1005C00014893BE65516CFFEE6DB18D1844B381B69
:1005D000F77C1D901DA4BBE424203284725E22812E
:1005E00000C9F124ECA1E53D276364696E6F707367
:1005F0007578585B00256420627974657320777282
:10060000697474656E20746F20454550524F4D20BB
:1006100061742061646472657373203078253034AE
:1006200078004433202D20526561642F577269741D
:100630006520454550524F4D0A0020436F756E743A
:1006400020583A20005344207072696E74696E67B6
:10065000206279746520004163746976652045786D
:100660007472756465723A2000496E76616C6964D3
:10067000206578747275646572005A204F666673DF
:10068000657400556E6B6E6F776E20636F6D6D6174
:100690006E643A2022004D32303020496E76616C13
:1006A000696420657874727564657220007A5F6D84
:1006B00061783A20007A5F6D696E3A2000795F6D4B
:1006C000696E3A20006F70656E0054524947474585
:1006D00052454400785F6D696E3A20005265706F34
:1006E0007274696E6720656E6473746F70207374C2
:1006F000617475730053494C454E54004E4F524D32
:10070000414C002553204D4F44453A2050657263BB
:10071000656E7420646F6E653A2025643B207072AC
:10072000696E742074696D652072656D61696E69AA
:100730006E6720696E206D696E733A2025640A0029
:10074000456E642066696C65206C6973740042654F
:1007500067696E2066696C65206C697374000A5065
:10076000494E44412074656D70657261747572659F
:100770003A20252E3166205A207368696674202835
:100780006D6D293A20252E3366000A537465703A40
:100790002025642F360A000A537465703A202564B8
:1007A0002F362028736B6970706564290A50494E92
:1007B00044412074656D70657261747572653A208C
:1007C0002564205A20736869667420286D6D293A63
:1007D000300A000A5A45524F3A20252E33660A0045
:1007E00073746172742074656D7065726174757272
:1007F000653A20252E31660A0025642020252E32F8
:100800006600255320583A20252E356620593A2077
:10081000252E3566205A3A20252E35660A00536C5F
:100820006565702E2E2E004E6F7420696E206661F5
:10083000726D206D6F64652E0025640045303A2589
:10084000642052504D0A50524E303A256420525086
:100850004D0A00256400442D31202D20456E646C26
:10086000657373206C6F6F700A00416476616E630C
:1008700065204B3D004B206F7574206F6620616CC6
:100880006C6F7765642072616E676521004D32324E
:10089000302053256900255346696C616D656E747F
:1008A0002073657474696E67733A2044697361627A
:1008B0006C65640A00255346696C616D656E742031
:1008C00073657474696E67733A0A25532020204D4E
:1008D0003230302044252E32660A0025535265748A
:1008E000726163743A20533D4C656E6774682028CA
:1008F0006D6D2920463A537065656420286D6D2F13
:100900006D29205A3A205A4C69667420286D6D2949
:100910000A25532020204D3230372053252E3266B1
:100920002046252E3266205A252E32660A2553523D
:1009300065636F7665723A20533D45787472612025
:100940006C656E67746820286D6D2920463A537077
:1009500065656420286D6D2F6D290A2553202020A0
:100960004D3230382053252E32662046252E3266F1
:100970000A25534175746F2D526574726163743A20
:1009800020533D3020746F2064697361626C652C64
:10099000203120746F20696E7465727072657420E6
:1009A000657874727564652D6F6E6C79206D6F76E5
:1009B0006573206173207265747261637473206F54
:1009C00072207265636F7665726965730A255320BC
:1009D00020204D323039205325640A0025535049D8
:1009E0004420686561746265642073657474696E1F
:1009F00067733A0A25532020204D33303420502588
:100A00002E32662049252E32662044252E32660A73
:100A10000025535049442073657474696E67733AB6
:100A20000A25532020204D3330312050252E3266A8
:100A30002049252E32662044252E32660A00255391
:100A400053746570732070657220756E69743A0A0C
:100A5000255320204D39322058252E326620592525
:100A60002E3266205A252E32662045252E32660A01
:100A700025534D6178696D756D2066656564726199
:100A800074657320286D6D2F73293A0A2553202031
:100A90004D3230332058252E32662059252E3266AD
:100AA000205A252E32662045252E32660A25534DC2
:100AB0006178696D756D20616363656C65726174E1
:100AC000696F6E20286D6D2F7332293A0A255320E5
:100AD000204D3230312058256C752059256C7520F9
:100AE0005A256C752045256C750A2553416363654D
:100AF0006C65726174696F6E3A20533D6163636522
:100B00006C65726174696F6E2C20543D72657472ED
:100B100061637420616363656C65726174696F6E93
:100B20000A255320204D3230342053252E326620A2
:100B300054252E32660A2553416476616E636564DE
:100B4000207661726961626C65733A20533D4D692C
:100B50006E20666565647261746520286D6D2F7303
:100B6000292C20543D4D696E2074726176656C208D
:100B7000666565647261746520286D6D2F73292C1C
:100B800020423D6D696E696D756D207365676D6599
:100B90006E742074696D6520286D73292C20583D72
:100BA0006D6178696D756D205859206A65726B208A
:100BB000286D6D2F73292C20205A3D6D6178696D49
:100BC000756D205A206A65726B20286D6D2F732910
:100BD0002C2020453D6D6178696D756D2045206A3A
:100BE00065726B20286D6D2F73290A255320204DC7
:100BF0003230352053252E32662054252E32662081
:100C000042252E32662058252E32662059252E3256
:100C100066205A252E32662045252E32660A255337
:100C2000486F6D65206F666673657420286D6D2949
:100C30003A0A255320204D3230362058252E326670
:100C40002059252E3266205A252E32660A00462566
:100C5000642025640A004D4D55203C3D2027462543
:100C600064202564270A00504944204175746F743C
:100C7000756E652066696E697368656421205075BC
:100C80007420746865206C617374204B702C204B49
:100C90006920616E64204B6420636F6E7374616EB3
:100CA00074732066726F6D2061626F766520696E65
:100CB000746F20436F6E66696775726174696F6ED9
:100CC0002E6800504944204175746F74756E65201C
:100CD0006661696C6564212074696D656F75740067
:100CE00020403A00543A00423A00504944204175AD
:100CF000746F74756E65206661696C65642120543B
:100D0000656D706572617475726520746F6F2068AF
:100D100069676800204B643A2000204B693A200044
:100D2000204B703A200020436C617373696320503C
:100D3000494420002054753A2000204B753A200089
:100D4000206D61783A2000206D696E3A20002064A1
:100D50003A200020626961733A200020453A002061
:100D60005A3A0020593A0020453A00205A3A0020C9
:100D7000593A00583A004361703A25533A25630ABC
:100D8000004155544F5245504F52545F54454D50B9
:100D900000002E0044656C6574696F6E20666169A1
:100DA0006C65642C2046696C653A200046696C6568
:100DB0002064656C657465643A004E6F742053441A
:100DC000207072696E74696E67005072696E74206B
:100DD0007361766564005344207072696E7420708C
:100DE0006175736564003B53002228322900447505
:100DF000706C696361746520542D636F646520694C
:100E0000676E6F7265642E0A004475706C69636169
:100E1000746520542D636F64652069676E6F726519
:100E2000642E0A00496E76616C6964205420636FF9
:100E300064652E00556E6B6E6F776E204D20636F6C
:100E400064653A202573200A006E6F2076616C6914
:100E50006420636F6D6D616E64002C20002C200097
:100E60002C20006E2F61002C20002C20002C200054
:100E70006E2F6100503A005761697420666F7220CE
:100E800050494E4441207461726765742074656DE9
:100E900070657261747572653A004C414E4720531B
:100EA000454C20464F5243454400256925250A00FC
:100EB000256925250A0022283129003030303030BC
:100EC0003030302D303030302D303030302D30302B
:100ED00030302D3030303030303030303030300045
:100EE00020555549443A0031002045585452554444
:100EF00045525F434F554E543A005072757361200E
:100F00006933204D4B322E355300204D4143484923
:100F10004E455F545950453A00312E3000206261F1
:100F2000736564206F6E204D61726C696E20464956
:100F3000524D574152455F55524C3A687474707324
:100F40003A2F2F6769746875622E636F6D2F707208
:100F500075736133642F50727573612D4669726DBC
:100F6000776172652050524F544F434F4C5F564546
:100F70005253494F4E3A004649524D574152455FF0
:100F80004E414D453A50727573612D4669726D77C9
:100F900061726520004D31313320530020423A0008
:100FA00020453A00543A006F6B20002569206D6996
:100FB0006E2C2025692073656300496E76616C692B
:100FC00064204D20636F64653A202573200A005524
:100FD0006E6B6E6F776E204720636F64653A2025D5
:100FE00073200A004D65736820626564206C657625
:100FF000656C696E67206E6F7420616374697665D5
:101000002E002020000A4D656173757265642070A2
:101010006F696E74733A000A5A207365617263686F
:10102000206865696768743A20004E756D20582CF9
:10103000593A2000206D6963726F6E7300457863C2
:1010400065737369766520626564206C6576656C8E
:10105000696E6720636F7272656374696F6E3A20A0
:1010600000426564206C6576656C696E6720666118
:10107000696C65642E2053656E736F72207472699B
:1010800067676572656420746F6F20686967682E92
:101090000A00426564206C6576656C696E6720663F
:1010A00061696C65642E2053656E736F722064698C
:1010B00073636F6E6E6563746564206F7220636125
:1010C000626C652062726F6B656E2E0A0047323863
:1010D0002057300050494E44412070726F626520A5
:1010E00063616C6962726174696F6E20737461729E
:1010F0007400473238205730004D323400472D639A
:101100006F646520736C6963656420666F7220612B
:1011100020646966666572656E74206C6576656CC0
:101120002E20436F6E74696E75653F00472D636FA7
:10113000646520736C6963656420666F722061204A
:10114000646966666572656E74206C6576656C2E82
:1011500020506C656173652072652D736C696365E1
:1011600020746865206D6F64656C20616761696ECD
:101170002E205072696E742063616E63656C6C65BD
:10118000642E00472D636F646520736C696365642A
:1011900020666F722061206E6577657220666972C5
:1011A0006D776172652E20506C6561736520757076
:1011B0006461746520746865206669726D77617218
:1011C000652E205072696E742063616E63656C6C6D
:1011D00065642E00472D636F646520736C696365D9
:1011E0006420666F722061206E6577657220666983
:1011F000726D776172652E20436F6E74696E7565CE
:101200003F00472D636F646520736C6963656420DC
:10121000666F72206120646966666572656E74200F
:101220007072696E74657220747970652E20506CCE
:10123000656173652072652D736C696365207468E0
:1012400065206D6F64656C20616761696E2E20504A
:1012500072696E742063616E63656C6C65642E00E8
:10126000472D636F646520736C6963656420666FE6
:1012700072206120646966666572656E74207072A2
:10128000696E74657220747970652E20436F6E7478
:10129000696E75653F00472D636F646520736C69E7
:1012A00063656420666F722061206469666665729A
:1012B000656E74207072696E7465722074797065E1
:1012C0002E20436F6E74696E75653F00472D636F06
:1012D000646520736C6963656420666F72206120A9
:1012E000646966666572656E74207072696E746595
:1012F0007220747970652E20506C65617365207260
:10130000652D736C69636520746865206D6F646515
:101310006C20616761696E2E205072696E74206363
:10132000616E63656C6C65642E005072657373202A
:101330006B6E6F6220746F207072656865617420D7
:101340006E6F7A7A6C6520616E6420636F6E74696B
:101350006E75652E00506C656173652070726573E3
:101360007320746865206B6E6F6220746F20756ED9
:101370006C6F61642066696C616D656E74005265A6
:101380006D6F7665206F6C642066696C616D656E4B
:101390007420616E642070726573732074686520B8
:1013A0006B6E6F6220746F207374617274206C6F47
:1013B0006164696E67206E65772066696C616D6532
:1013C0006E742E00616E6420707265737320746891
:1013D00065206B6E6F6200496E736572742066697A
:1013E0006C616D656E7400436F6C6F72206E6F740C
:1013F00020636F72726563740046696C616D656E1F
:1014000074206E6F74206C6F616465640043686162
:101410006E67656420636F72726563746C793F00F8
:101420004C6F6164696E6720636F6C6F7200436814
:10143000616E676520737563636573732100506C1B
:1014400065617365206F70656E2069646C657220DC
:10145000616E642072656D6F76652066696C616D82
:10146000656E74206D616E75616C6C792E005761CC
:10147000732066696C616D656E7420756E6C6F614A
:1014800064207375636365737366756C3F00506C9D
:101490006561736520757067726164652E004E65C5
:1014A00077206669726D77617265207665727369FF
:1014B0006F6E20617661696C61626C653A0057619C
:1014C0006974696E6720666F722050494E444120EE
:1014D00070726F626520636F6F6C696E670045782C
:1014E0007472756465720043686F6F736520657808
:1014F0007472756465723A0043686F6F7365206635
:10150000696C616D656E743A004E6F206D6F766523
:101510002E005761697420666F7220757365722E94
:101520002E2E00536F6D652070726F626C656D209A
:10153000656E636F756E74657265642C205A2D6CD0
:101540006576656C696E6720656E666F726365644B
:10155000202E2E2E00537461626C6520616D6269CD
:10156000656E742074656D70657261747572652046
:1015700032312D323643206973206E6565646564AF
:101580002061207269676964207374616E642069E8
:10159000732072657175697265642E00506C6561A7
:1015A00073652072756E2058595A2063616C6962A8
:1015B000726174696F6E2066697273742E005830A0
:1015C0000A006164635F696E69740A000A204F72E1
:1015D0006967696E616C2050727573612069330AA6
:1015E00020202050727573612052657365617263AB
:1015F0006800436F6E74696E756520776974682042
:10160000616E6F7468657220626F7764656E3F000B
:101610002500202020202020002020202020200025
:1016200045524153494E4720616C6C20646174619E
:1016300000466163746F72792052455345540046E9
:101640006163746F72792052455345540044495385
:1016500041424C454400454E41424C4544004653AE
:10166000656E736F722025530050525553413344B9
:101670004657004D4B322E35534D4D553253001CBD
:101680004F4D4B322E355300FC004F6374203239DE
:10169000203230323000436F6D70696C65643A20DF
:1016A00000286E6F6E652C2064656661756C742011
:1016B000636F6E66696729004F6374203239203288
:1016C0003032302031333A34333A34340020332E40
:1016D000392E312D333531380A007374617274003C
:1016E0002055706C6F616420696E2070726F677234
:1016F00065737300205A3A0020593A0020583A0086
:101700004D323900546865726520697320737469BD
:101710006C6C2061206E65656420746F206D616B58
:1017200065205A2063616C6962726174696F6E2E04
:1017300020506C6561736520666F6C6C6F772074E8
:101740006865206D616E75616C2C206368617074D2
:1017500065722046697273742073746570732C20EF
:1017600073656374696F6E2043616C696272617442
:10177000696F6E20666C6F772E005072696E7465AB
:101780007220686173206E6F74206265656E2063DD
:10179000616C69627261746564207965742E205091
:1017A0006C6561736520666F6C6C6F77207468651B
:1017B000206D616E75616C2C206368617074657258
:1017C0002046697273742073746570732C2073657E
:1017D0006374696F6E2043616C6962726174696FD2
:1017E0006E20666C6F772E004F6C64207365747486
:1017F000696E677320666F756E642E20446566613E
:10180000756C74205049442C2045737465707320A6
:101810006574632E2077696C6C2062652073657433
:101820002E005761726E696E673A20626F7468208D
:101830007072696E746572207479706520616E646F
:10184000206D6F74686572626F6172642074797064
:1018500065206368616E6765642E005761726E690A
:101860006E673A207072696E746572207479706563
:10187000206368616E6765642E005761726E696EE1
:10188000673A206D6F74686572626F61726420746C
:10189000797065206368616E6765642E0020205052
:1018A0006C616E6E657242756666657242797465CA
:1018B000733A20002046726565204D656D6F727920
:1018C0003A2000207C20417574686F723A20002015
:1018D0004C61737420557064617465643A20002013
:1018E000536F66747761726520526573657400206A
:1018F0005761746368646F67205265736574002074
:1019000042726F776E206F75742052657365740034
:101910002045787465726E616C2052657365740041
:10192000506F7765725570006572726F72207772B2
:101930006974696E6720746F2066696C6500656EF6
:101940006473746F7073206869743A2000446F6E1A
:101950006520736176696E672066696C652E006F1D
:101960006B0058595A2063616C6962726174696FC7
:101970006E20616C6C2072696768742E20536B65F1
:10198000772077696C6C20626520636F7272656383
:10199000746564206175746F6D61746963616C6CEA
:1019A000792E0058595A2063616C696272617469BA
:1019B0006F6E20616C6C2072696768742E20582FDE
:1019C0005920617865732061726520736C6967685E
:1019D000746C7920736B657765642E20476F6F6434
:1019E000206A6F62210058595A2063616C696272E3
:1019F0006174696F6E206F6B2E20582F59206178AB
:101A00006573206172652070657270656E646963CC
:101A1000756C61722E20436F6E67726174756C61B4
:101A200074696F6E73210058595A2063616C696242
:101A3000726174696F6E206661696C65642E2052F4
:101A4000696768742066726F6E742063616C696286
:101A5000726174696F6E20706F696E74206E6F743E
:101A600020726561636861626C652E0058595A2066
:101A700063616C6962726174696F6E206661696C22
:101A800065642E2046726F6E742063616C696272A9
:101A90006174696F6E20706F696E7473206E6F74FD
:101AA00020726561636861626C652E0058595A2026
:101AB00063616C6962726174696F6E206661696CE2
:101AC00065642E20506C6561736520636F6E73755D
:101AD0006C7420746865206D616E75616C2E0058A1
:101AE000595A2063616C6962726174696F6E206318
:101AF0006F6D70726F6D697365642E2052696768CF
:101B0000742066726F6E742063616C6962726174B6
:101B1000696F6E20706F696E74206E6F74207265CD
:101B200061636861626C652E0058595A2063616C6C
:101B30006962726174696F6E20636F6D70726F6D30
:101B4000697365642E2046726F6E742063616C69E0
:101B500062726174696F6E20706F696E7473206E4B
:101B60006F7420726561636861626C652E005859FC
:101B70005A2063616C6962726174696F6E2066617C
:101B8000696C65642E204265642063616C696272D1
:101B90006174696F6E20706F696E74207761732055
:101BA0006E6F7420666F756E642E00506C65617385
:101BB0006520706C61636520737465656C20736863
:101BC000656574206F6E20686561746265642E00BF
:101BD00044697374616E6365206265747765656ED0
:101BE00020746970206F6620746865206E6F7A7A41
:101BF0006C6520616E642074686520626564207382
:101C000075726661636520686173206E6F7420620F
:101C100065656E20736574207965742E20506C653F
:101C200061736520666F6C6C6F7720746865206DDA
:101C3000616E75616C2C20636861707465722046FA
:101C4000697273742073746570732C207365637488
:101C5000696F6E204669727374206C6179657220B9
:101C600063616C6962726174696F6E2E00506C61A1
:101C700063652061207368656574206F66207061FC
:101C800070657220756E64657220746865206E6F71
:101C90007A7A6C6520647572696E67207468652055
:101CA00063616C6962726174696F6E206F66206631
:101CB00069727374203420706F696E74732E2049BA
:101CC0006620746865206E6F7A7A6C652063617433
:101CD00063686573207468652070617065722C207C
:101CE000706F776572206F66662074686520707209
:101CF000696E74657220696D6D6564696174656C87
:101D0000792E00506C656173652072656D6F766524
:101D100020737465656C2073686565742066726FE6
:101D20006D20686561746265642E00497320737468
:101D300065656C207368656574206F6E20686561E9
:101D4000746265643F00206F6620340053656172E1
:101D50006368696E67206265642063616C696272A2
:101D60006174696F6E20706F696E7400206F6620F9
:101D700039004D6561737572696E672072656665BD
:101D800072656E636520686569676874206F662098
:101D900063616C6962726174696F6E20706F696EE5
:101DA0007400506C6561736520636C65616E2074AE
:101DB0006865206E6F7A7A6C6520666F7220636149
:101DC0006C6962726174696F6E2E20436C69636B1B
:101DD000207768656E20646F6E652E004175746FA4
:101DE00020686F6D650078797A63616C5F6D6561FD
:101DF00073737572655F656E7465720A0078797ABF
:101E000063616C5F73706972616C382063783D2523
:101E1000642063793D2564207A303D256420647A0E
:101E20003D2564207261646975733D256420616499
:101E30003D25640A0078797A63616C5F736561722D
:101E400063685A206E6F207369676E616C0A207830
:101E50003D256C6420793D256C64207A3D256C64B9
:101E60000A00204F4E2D5349474E414C20617420AB
:101E7000783D256420793D2564207A3D25642061E4
:101E8000643D25640A0078797A63616C5F736561EB
:101E90007263685A20783D256C6420793D256C6416
:101EA000207A3D256C640A000A00253032780078DB
:101EB000797A63616C5F7363616E5F706978656C7A
:101EC000735F33327833322063783D256420637941
:101ED0003D2564206D696E5F7A3D2564206D6178D3
:101EE0005F7A3D25640A00202532642025640A00BB
:101EF0000A002530327800206D696E3D2564206D22
:101F000061783D2564206469663D25640A006D6141
:101F1000785F633D253264206D61785F6C3D256498
:101F20000A006D61785F633D2564206D61785F72A2
:101F30003D2564206D61785F6D617463683D256443
:101F40000A0020783D256420793D2564207A3D25CE
:101F5000640A00207061747465726E20666F756E1D
:101F6000642061742025642025640A000000F000CC
:101F7000F801FC03FE07FE07FE07FE07FC03F8015D
:101F8000F000000073697A656F6628746F74616C85
:101F9000293D25640A0073697A656F6628626C6F53
:101FA000636B5F627566666572293D25640A007819
:101FB000797A63616C5F6D656173737572655F6C6F
:101FC000656176650A00706F696E743D25642078DE
:101FD0003D256420793D2564207A3D25640A00BCB6
:101FE00002BC02584D584DB004F055F055B004787D
:101FF000797A63616C5F66696E645F6265645F696C
:102000006E64756374696F6E5F73656E736F725F14
:10201000706F696E745F787920783D256C642079E3
:102020003D256C64207A3D256C640A00203C20002C
:102030005741524E494E473A2046726F6E74207097
:102040006F696E74206E6F7420726561636861627F
:102050006C652E205920636F6F7264696E617465C0
:102060003A0000000040410000804000005C430056
:1020700000804000005C43000044430000404100F9
:10208000004443497465726174696F6E3A2000437D
:10209000616C6962726174696F6E206661696C65FA
:1020A000642120436865636B2074686520617865EE
:1020B0007320616E642072756E20616761696E2E97
:1020C000005553415254322072782046756C6C2171
:1020D00021210A0053657474696E67732053746F0D
:1020E0007265640053746F726564207365747469FB
:1020F0006E67732072657472696576656400486105
:102100007264636F6465642044656661756C7420F5
:1021100053657474696E6773204C6F616465640005
:10212000563200000000C8420000C8420000C84308
:1021300000000543000048430000484300004041C0
:102140000000F042E8030000E8030000C8000000BF
:102150008813000000409C4400409C4400000000A4
:1021600000000000204E000000002041000020413F
:10217000CDCCCC3E000090400000000000000000EC
:1021800000000000CDCCCC3E3D0A8141FF08433E1B
:10219000B099AB438F42FC42E65A343F4C62B045A3
:1021A0000000000000404000003442000000000039
:1021B00000000000000041000000E03F00002C4350
:1021C00000002C43000040410000F042C00300002A
:1021D000C0030000C8000000881300001010101099
:1021E000627573793A2070617573656420666F72E9
:1021F00020696E70757400627573793A207061752C
:1022000073656420666F7220757365720062757302
:10221000793A2070726F63657373696E67000000AE
:102220007A430000524300004A43000000000000CF
:1022300080C09A99193E00000000000080C09A9961
:10224000193E20503A002042403A0020403A0020F7
:102250002F00205400202F0020423A00202F00544D
:102260003A0067636F64655F4D37303120626567A0
:10227000696E0A0047312059252D2E3266204525EA
:102280002D2E3366004731205825642059252D2EE8
:1022900032662045252D2E3366006673656E736F9A
:1022A000725F636865636B706F696E745F7072698B
:1022B0006E740A00312E3000312E3500554E4B4ED3
:1022C0004F574E004C413130433A204C696E6561A6
:1022D0007220416476616E6365206D6F64653A209B
:1022E000004C413130433A2041646A75737465642F
:1022F00020452D4A65726B3A2000000E1315110E11
:1023000000000004120912040000001C1F11111F1C
:1023100000000006191803130C00040E1F041C0013
:102320000000040A0A0A0A11110E001F1511151FD8
:102330000000000103161C0800000000110A04112F
:102340000A040C12120C000000002563252D313800
:102350002E313853256300252E313053200025635C
:10236000252D31382E3138732563002563252D2E18
:1023700031365320005B25735D2563005B25535D7B
:102380002563002563252D31382E31385300256310
:10239000252E3135533A257325336400222066619A
:1023A000696C65643A204275666665722066756C74
:1023B0006C21002200256920686F757273202569E1
:1023C000206D696E757465730054494D454F5554C1
:1023D0003A004D3131300046756C6C205258204225
:1023E000756666657200437573746F6D0054657829
:1023F00074757200536D6F6F746800656E717565EA
:10240000696E67202200446F6E65207072696E7479
:10241000696E672066696C65004D313132206361F9
:102420006C6C65642E20456D657267656E637920FE
:1024300053746F702E005072696E746572207374DD
:102440006F707065642064756520746F20657272AA
:102450006F72732E204669782074686520657272E9
:102460006F7220616E6420757365204D3939392093
:10247000746F20726573746172742E202854656DB8
:102480007065726174757265206973207265736519
:10249000742E2053657420697420616674657220FF
:1024A00072657374617274696E6729004E6F204C97
:1024B000696E65204E756D6265722077697468205B
:1024C000636865636B73756D2C204C617374204C6D
:1024D000696E653A20004E6F20436865636B7375C3
:1024E0006D2077697468206C696E65206E756D6209
:1024F00065722C204C617374204C696E653A200023
:10250000636865636B73756D206D69736D6174636A
:10251000682C204C617374204C696E653A20004C25
:10252000696E65204E756D626572206973206E6FED
:1025300074204C617374204C696E65204E756D6219
:1025400065722B312C204C617374204C696E653A96
:10255000200053544F505045442E200024F4D430D2
:1025600050C38E20C2A24017828B7011127A910D37
:10257000816CD90AA861E108C75866076151430612
:102580001E4B5D05C145A7041A411104093D98037E
:10259000713931034036DB0265339102D430540285
:1025A000802E1D02632CEE01752AC501B028A00102
:1025B000102781018F2564012B244B01E022340177
:1025C000AC211F018D200D01801FFC00841EED0039
:1025D000971DDF00B81CD200E61BC600201BBC0004
:1025E000641AB200B219A8000A19A0006A1899006A
:1025F000D117910040178B00B516840031167E006C
:10260000B31579003A157300C7146F0058146A00A7
:10261000EE1366008813630025135E00C7125B008B
:102620006C12570015125400C111510070114F0067
:1026300021114B00D61049008D1047004610440070
:1026400002104200C00F4000800F3E00420F3C00CD
:10265000060F3B00CB0E3800930E37005C0E3500A2
:10266000270E3400F30D3200C10D3100900D300003
:10267000600D2E00320D2D00050D2C00D90C2B0005
:10268000AE0C2900850C29005C0C2700350C2700B6
:102690000E0C2600E80B2400C40B2400A00B230022
:1026A0007D0B23005A0B2100390B2100180B200051
:1026B000F80A1F00D90A1E00BB0A1E009D0A1D0051
:1026C000800A1D00630A1C00470A1B002C0A1B001D
:1026D000110A1A00F7091A00DD091900C4091900C6
:1026E000AB091900920917007B091800630917004C
:1026F0004C09160036091600200916000A091500B3
:10270000F5081500E0081400CC081400B8081400FF
:10271000A4081400900813007D0812006B08130031
:10272000580812004608120034081100230811004E
:102730001208110001081100F0071000E007100056
:10274000D0071000C0071000B0070F00A10710004D
:1027500091070E0083070F0074070F0065070E0036
:1027600057070E0049070E003B070D002E070E000D
:1027700020070D0013070D0006070D00F9060C00D9
:10278000ED060D00E0060C00D4060C00C8060C0097
:10279000BC060C00B0060C00A4060B0099060C0049
:1027A0008D060B0082060B0077060B006C060B00F3
:1027B00061060A0057060B004C060A0042060A0092
:1027C00038060A002E060A0024060A001A060A0025
:1027D0001006090007060A00FD050900F4050900B6
:1027E000EB050900E2050900D9050900D00509003B
:1027F000C7050900BE050900B5050800AD050800BC
:10280000A50509009C050800940508008C05080032
:10281000840508007C050800740508006C050700A5
:10282000650508005D050700560508004E05070010
:102830004705070040050800380507003105070077
:102840002A050700230507001C05060016050700DA
:102850000F0507000805060002050700FB04060037
:10286000F5040700EE040600E8040600E204070091
:10287000DB040600D5040600CF040600C9040600E8
:10288000C3040600BD040600B7040600B104050039
:10289000AC040600A6040600A00405009B04060084
:1028A00095040500900406008A04050085040500CF
:1028B000800406007A040500750405007004050014
:1028C0006B04050066040500610405005C04050056
:1028D00057040500520405004D0405004804050096
:1028E000430405003E0404003A04050035040500D5
:1028F000300404002C040500270404002304050010
:102900001E0404001A040400160405001104040047
:102910000D0404000904050004040400000404007C
:10292000FC030400F8030400F4030400F0030400B3
:10293000EC030400E8030400E4030400E0030400E3
:10294000DC030400D8030400D4030400D003040013
:10295000CC030400C8030300C503030024F404D916
:10296000201BC40C5C0E9804C4095F02650771014A
:10297000F405F900FB04B30048048700C1036900B3
:102980005803550003034500BE023A00840231009B
:1029900053022A002902250004022000E4011C0041
:1029A000C8011900AF011700980114008401130039
:1029B000710110006101100051010E0043010D0072
:1029C00036010B002B010B0020010B001501090043
:1029D0000C01090003010800FB000800F3000800D7
:1029E000EB000700E4000600DE000600D800060049
:1029F000D2000600CC000500C7000500C20005009B
:102A0000BD000400B9000400B5000400B1000400DA
:102A1000AD000400A9000400A5000300A20003000B
:102A20009F0004009B000300980003009500020033
:102A300093000300900003008D0002008B00030050
:102A4000880002008600020084000300810002006A
:102A50007F0002007D0002007B000200790002007E
:102A6000770001007600020074000200720001008D
:102A7000710002006F0002006D0001006C00020096
:102A80006A000100690002006700010066000100A1
:102A900065000100640002006200010061000100A5
:102AA000600001005F0002005D0001005C000100A9
:102AB0005B0001005A0001005900010058000100AC
:102AC00057000100560001005500010054000100AC
:102AD00053000000530001005200010051000100AA
:102AE000500001004F0001004E0000004E000100A8
:102AF0004D0001004C0001004B0000004B000100A4
:102B00004A0001004900010048000000480001009F
:102B1000470001004600000046000100450000009B
:102B20004500010044000100430000004300010093
:102B3000420000004200010041000000410001008D
:102B4000400001003F0000003F0001003E00000087
:102B50003E0001003D0000003D0001003C0000007F
:102B60003C0000003C0001003B0000003B00010075
:102B70003A0000003A00010039000000390001006D
:102B80003800000038000000380001003700000065
:102B9000370001003600000036000000360001005A
:102BA0003500000035000000350001003400000051
:102BB0003400000034000100330000003300000046
:102BC000330001003200000032000000320001003A
:102BD0003100000031000000310001003000000031
:102BE00030000000300001002F0000002F00000026
:102BF0002F0000002F0001002E0000002E0000001A
:102C00002E0001002D0000002D0000002D0000000E
:102C10002D0001002C0000002C0000002C00000002
:102C20002C0001002B0000002B0000002B000000F6
:102C30002B0001002A0000002A0000002A000000EA
:102C40002A000100290000002900000029000000DE
:102C500029000000290001002800000028000000D1
:102C600028000000280000002800010027000000C4
:102C700027000000270000002700000027000100B7
:102C800026000000260000002600000026000000AC
:102C9000260001002500000025000000250000009E
:102CA0002500000025000000250001002400000090
:102CB0002400000024000000240000002400010083
:102CC0002300000023000000230000002300000078
:102CD0002300000023000000230001002200000068
:102CE000220000002200000022000000220000005C
:102CF000220001002100000021000000210000004E
:102D0000210000002100000021000000210001003E
:102D10002000000020000000200000002000000033
:102D20002000000020000000200000002000010022
:102D30001F0000001F0000001F0000001F00000017
:102D40001F0000001F0000001F0001001E00000007
:102D50001E0000001E0000001E0000001000C9023E
:102D600010012C014001220170011801B0010E0177
:102D7000F00104015002FA00B002F0003003E60056
:102D8000D003DC009004D2007005C800A006BE008D
:102D90000008B400B009AA00D00BA000600E960095
:102DA00060118C000015820020197800C01D6E0093
:102DB000A0226400B0275A00902C50000031460039
:102DC000E0343C0010383200903A2800603C1E008D
:102DD000A03D1400803E0A00203F000045303A200C
:102DE000005A3A2000593A2000583A20004D5331F9
:102DF0002C4D53322050696E730A004578747275F9
:102E00006465722066616E20737065656420697305
:102E1000206C6F776572207468616E2065787065CC
:102E200063746564005072696E742066616E20730D
:102E300070656564206973206C6F776572207468B3
:102E4000616E206578706563746564004D494E5409
:102E5000454D50004D494E54454D5020424544008B
:102E60004D415854454D50004D415854454D50200A
:102E700042454400202D20496E76616C69642065CE
:102E800078747275646572206E756D62657220214A
:102E90000070012C0190012701B0012201C0011D29
:102EA00001F00118011002130130020E0160020945
:102EB0000190020401C002FF000003FA004003F584
:102EC000008003F000D003EB002004E6007004E172
:102ED00000E004DC004005D700C005D2004006CD6C
:102EE00000D006C8008007C3003008BE00F008B953
:102EF00000C009B400B00AAF00B00BAA00D00CA506
:102F000000000EA000500F9B00C0109600501291C0
:102F10000000148C00C0158700B0178200B0197D26
:102F200000D01B7800001E730040206E00902269C4
:102F300000F024640040275F0090295A00E02B55E0
:102F400000102E500020304B0010324600E033417C
:102F50000090353C001037370070383200A0392D12
:102F600000B03A2800A03B2300603C1E00103D1931
:102F700000903D1400103E0F00703E0A00C03E0558
:102F800000003F000020484F54454E44205448451F
:102F9000524D414C2052554E415741590020484511
:102FA000415442454420544845524D414C205255CD
:102FB0004E4157415900544845524D414C205255BD
:102FC0004E415741590042454420544845524D41D5
:102FD0004C2052554E415741590020544845524DBE
:102FE000414C2052554E41574159202820505245BE
:102FF0004845415420484F54454E442900205448E8
:1030000045524D414C2052554E41574159202820A0
:103010005052454845415420484541544245442971
:103020000050524548454154204552524F520042AB
:1030300045442050524548454154204552524F5234
:10304000004572723A200020747269676765726584
:1030500064210048656174657273207377697463D5
:10306000686564206F66662E20003A200045727203
:103070003A205052494E542046414E204552524F1C
:103080005200506C6561736520726573746172746F
:1030900000252D3773003A200025642F3600252D9A
:1030A00032305300202020202020202020202020EB
:1030B0002020202020202000203A20002020202036
:1030C0002020202020202020202020202020202000
:1030D00000252D32307300202020202020202020A9
:1030E000202020200025730025632533642F2564CC
:1030F0002563005A25362E32662563005A2020208B
:103100002D2D2D200025632533642525002D2D2D03
:103110000025336868640025335325337325250063
:103120005553420020202000205344002025753EA6
:10313000257500203F3E2575002046257500204658
:103140003F0020463020200025632D2D3A2D2D20D4
:1031500020002563253375682025632563002563DA
:10316000253032753A253032752563256300504984
:103170004E44412048656174696E670043616C6923
:1031800062726174696F6E20646F6E650043616C7A
:103190006962726174696E67205A004265642064D6
:1031A0006F6E65004265642048656174696E6700F2
:1031B00048656174696E6720646F6E652E004865AE
:1031C0006174696E67006D6D0059005800583A00CF
:1031D000593A005A3A002563252D31332E313353A5
:1031E000252B352E33660020003E003E0020003E99
:1031F000003E0054656D7065726174757265206380
:10320000616C6962726174696F6E206661696C6578
:10321000642E20436F6E74696E75652077697468DB
:10322000207072657373696E6720746865206B6EB9
:103230006F622E0054656D706572617475726520E1
:1032400063616C6962726174696F6E20646F6E6530
:103250002E20436F6E74696E7565207769746820DF
:103260007072657373696E6720746865206B6E6F2A
:10327000622E005A30005A3100593000593100583E
:103280003000583100456E642073746F7073206491
:10329000696167005B303B305D20706F696E742040
:1032A0006F66667365740041646A757374696E67EE
:1032B000205A3A005265736574005265617220733A
:1032C000696465205B756D5D0046726F6E74207376
:1032D0006964655B756D5D00526967687420736928
:1032E00064655B756D5D004C65667420736964652B
:1032F000205B756D5D005365742074656D7065723B
:1033000061747572653A00417265206C656674205F
:10331000616E64207269676874205A7E636172729C
:10332000696167657320616C6C2075703F00436153
:103330006C6962726174696E672058595A2E205206
:103340006F7461746520746865206B6E6F622074A1
:103350006F206D6F766520746865205A20636172F6
:10336000726961676520757020746F2074686520CC
:10337000656E642073746F70706572732E20436C79
:1033800069636B207768656E20646F6E652E0043FD
:10339000616C6962726174696E67205A2E20526F87
:1033A0007461746520746865206B6E6F6220746F41
:1033B000206D6F766520746865205A206361727293
:1033C0006961676520757020746F20746865206579
:1033D0006E642073746F70706572732E20436C6915
:1033E000636B207768656E20646F6E652E00546590
:1033F0006D70657261747572652063616C6962726B
:103400006174696F6E206661696C65640054656DF6
:1034100070657261747572652063616C6962726156
:1034200074696F6E2069732066696E69736865647C
:1034300020616E64206163746976652E2054656D29
:10344000702E2063616C6962726174696F6E2063B3
:10345000616E2062652064697361626C65642069D5
:103460006E206D656E752053657474696E67732D7B
:103470003E54656D702E2063616C2E0049523A00F7
:1034800046494E44413A0050494E44413A00536542
:103490006E736F7220737461746500202030002099
:1034A00020310054656D702E2063616C6962726119
:1034B00074696F6E0052657365742058595A2063A1
:1034C000616C6962722E0053686F7720656E6420AC
:1034D00073746F7073005049442063616C69627249
:1034E0006174696F6E00426564206C6576656C205E
:1034F000636F7272656374004D6573682042656422
:10350000204C6576656C696E670043616C69627218
:10351000617465205A0043616C6962726174652050
:1035200058595A0053656C667465737420202020C6
:1035300020202020200057697A617264004C6F615E
:103540006420616C6C00456A6563742066696C6117
:103550006D656E74004375742066696C616D656E8F
:103560007400506C656173652070756C6C206F75AC
:10357000742066696C616D656E7420696D6D65643B
:10358000696174656C7900556E6C6F6164696E6712
:103590002066696C616D656E7400526573756D6946
:1035A0006E67207072696E740052657365740052A4
:1035B000656E616D65004669727374206C61796532
:1035C000722063616C2E0053656C656374005374E4
:1035D00065656C2073686565747300536865657410
:1035E00000537570706F7274004661696C2073745B
:1035F000617473204D4D55004661696C2073746190
:103600007473005374617469737469637320200068
:1036100043616C6962726174696F6E004175746FA9
:103620004C6F61642066696C616D656E74004375F2
:10363000742066696C616D656E7400456A656374BB
:103640002066696C616D656E7400556E6C6F6164A7
:103650002066696C616D656E74004C6F61642074E6
:103660006F206E6F7A7A6C65004C6F6164206669BA
:103670006C616D656E74004E6F20534420636172FF
:1036800064005072696E742066726F6D205344003E
:10369000526573756D65207072696E740050617546
:1036A0007365207072696E7400526573756D652064
:1036B0007072696E7400507265686561740054754B
:1036C0006E65004C6976652061646A757374205A72
:1036D00000496E666F2073637265656E004D343409
:1036E0000047323820570047393900446973616216
:1036F0006C65206661726D206D6F64653F00252DDD
:10370000392E39535B002563252D31382E3138731E
:103710002563004661726D206E756D6265720045AD
:1037200072723A20455854522E2046414E2045523E
:10373000524F52002F2F20616374696F6E3A726589
:1037400073756D65640020746F6F206C6F6E6720F9
:10375000657874727573696F6E2070726576656EC8
:103760007465640020636F6C64206578747275738F
:10377000696F6E2070726576656E74656400457859
:10378000747275646572004D6F7665205A004D6FD6
:1037900076652059004D6F76652058004175746F2D
:1037A0006C6F6164696E672066696C616D656E74CB
:1037B00020617661696C61626C65206F6E6C792046
:1037C0007768656E2066696C616D656E74207365DF
:1037D0006E736F72206973207475726E6564206FEA
:1037E0006E2E2E2E004552524F523A2046696C6181
:1037F0006D656E742073656E736F72206973206ED1
:103800006F7420726573706F6E64696E672C2070C0
:103810006C6561736520636865636B20636F6E6EB2
:10382000656374696F6E2E0043616C6962726174C6
:103830006500536865657420252E37730A5A206F1A
:1038400066667365743A20252B312E3366206D6DC4
:103850000A2563436F6E74696E75650A2563537438
:103860006172742066726F6D207A65726F00506CA1
:1038700065617365206C6F61642066696C616D655C
:103880006E742066697273742E0049732066696CC9
:10389000616D656E74206C6F616465643F004361A7
:1038A0006E63656C0046696C616D656E740053658E
:1038B0006C6563742066696C616D656E743A005264
:1038C000756E6E696E672057697A617264207769D8
:1038D0006C6C2064656C6574652063757272656ECE
:1038E000742063616C6962726174696F6E207265C5
:1038F00073756C747320616E6420737461727420CC
:1039000066726F6D2074686520626567696E6E69A6
:103910006E672E20436F6E74696E75653F0050723E
:103920006568656174696E67206E6F7A7A6C652E62
:1039300020506C6561736520776169742E0047388B
:1039400030004D3435004D3435205A0047373600AD
:1039500054656D7065726174757265730053656E40
:10396000736F7220696E666F004578747275646556
:103970007220696E666F0058595A2063616C2E2060
:1039800064657461696C7300756E6B6E6F776E0041
:103990004D4D553220636F6E6E65637465640044EF
:1039A0006174653A00686F77746F2E707275736119
:1039B00033642E636F6D00666F72756D2E70727555
:1039C000736133642E636F6D00707275736133645D
:1039D0002E636F6D00746F20756E6C6F616420666E
:1039E000696C616D656E7400746F206C6F6164202A
:1039F00066696C616D656E740050726573732074D6
:103A00006865206B6E6F62003E43616E63656C009B
:103A100050726568656174696E6720746F206375A4
:103A2000740050726568656174696E6720746F20F8
:103A3000656A6563740050726568656174696E6774
:103A400020746F20756E6C6F6164005072656865DC
:103A50006174696E6720746F206C6F616400436FDE
:103A60006F6C646F776E0050726568656174207466
:103A70006865206E6F7A7A6C6521004552524F520C
:103A80003A0046696C616D656E7420657874727574
:103A900064696E672026207769746820636F72728C
:103AA00065637420636F6C6F723F004175746F6C57
:103AB0006F6164696E672066696C616D656E742004
:103AC0006973206163746976652C206A757374204C
:103AD000707265737320746865206B6E6F6220610D
:103AE0006E6420696E736572742066696C616D65C1
:103AF0006E742E2E2E005072696E742074696D657E
:103B00000046696C616D656E742075736564005460
:103B10006F74616C207072696E742074696D6500D9
:103B2000546F74616C2066696C616D656E740052CF
:103B300069676874004C6566740059206469737421
:103B4000616E63652066726F6D206D696E005365EE
:103B50007665726520736B65773A00536C696768A8
:103B60007420736B65773A004D6561737572656497
:103B700020736B657700466C6173684169722049F8
:103B80005020416464723A004D4D5532202020206F
:103B90002020204E2F410025642E25642E25642DE3
:103BA0002564002046573A004F6374203239203292
:103BB00030323000453344763666756C6C005241C5
:103BC0004D426F31336100315F37356D6D5F4D4B65
:103BD0003235002D2D2D2D2D2D2D2D2D2D2D2D0062
:103BE000207265706F20556E6B6E6F776E0020339C
:103BF0002E392E312D33353138004669726D77619B
:103C000072653A0025642E25642E25642E256400F5
:103C10004D373032004D373031004D373032004DA6
:103C200037303100464C4558202D20203234302F7B
:103C300035300050502020202D20203235342F31B7
:103C400030300048495053202D20203232302F315F
:103C500030300041425320202D20203235352F3185
:103C600030300050432020202D20203237352F3196
:103C700030350041534120202D20203236302F3165
:103C800030350050455420202D20203233302F383D
:103C90003500504C4120202D20203231352F363038
:103CA000006E6F7A7A6C65202D20203235302F30EF
:103CB000006661726D2020202D20203235302F3893
:103CC0003000252D31322E313253252B382E3166DE
:103CD0000045787472756465723A0025533A0A2576
:103CE00031382E32666D200A25533A0A2531306C60
:103CF0006468202530326868646D20253032686839
:103D000064730025533A0A2531382E32666D200A35
:103D100025533A0A2531306C6464202530326868B6
:103D20006468202530326868646D0025362E32665E
:103D30006D6D0025533A0A25530A25533A0A255337
:103D40003A0025332E3266010025533A0A25530ADC
:103D5000252D31352E31355325332E3266010A2576
:103D60002D31352E31355325332E326601000000BA
:103D7000A0400000A0400000004000007A43000086
:103D800056439AD94943FFFFFF4E6F20307846468D
:103D90002072656365697665640053656E64696E5B
:103DA000672030784646001F1F1F1F1F1F1F1F4E12
:103DB0006F772066726573682066696C653A2000CB
:103DC0004E6F7720646F696E672066696C653A2074
:103DD000002220706F73002220706172656E743A49
:103DE0002200535542524F5554494E452043414CB1
:103DF0004C207461726765743A22005344206361F9
:103E00007264206F6B006F70656E526F6F74206606
:103E100061696C656400766F6C756D652E696E699D
:103E200074206661696C656400534420696E69742E
:103E3000206661696C0057726974696E6720746FDF
:103E40002066696C653A200046696C652073656C74
:103E50006563746564002053697A653A2000466999
:103E60006C65206F70656E65643A200074727969C4
:103E70006E6720746F2063616C6C207375622D67B0
:103E8000636F64652066696C657320776974682068
:103E9000746F6F206D616E79206C6576656C732E22
:103EA000006F70656E206661696C65642C204669E0
:103EB0006C653A2000536F7274696E672066696C96
:103EC000657300536F6D652066696C657320776953
:103ED0006C6C206E6F7420626520736F7274656401
:103EE0002E204D61782E204E6F2E206F6620666941
:103EF0006C657320696E203120666F6C646572207A
:103F0000666F7220736F7274696E672069732031F7
:103F100030302E002573206C6576656C20657870D6
:103F200065637465640046616C73652074726967CB
:103F3000676572696E6700537761707065640046EB
:103F4000726F6E742F6C6566742066616E730041CB
:103F50007869730041786973206C656E67746800D6
:103F60004C6F6F73652070756C6C657900456E647D
:103F700073746F70206E6F742068697400456E648E
:103F800073746F70004D6F746F7200456E6473745C
:103F90006F707300576972696E67206572726F7215
:103FA00000426564202F20486561746572004E6F81
:103FB0007420636F6E6E6563746564004865617438
:103FC00065722F546865726D6973746F7200506CFE
:103FD0006561736520636865636B203A0053656CA7
:103FE0006674657374206572726F72202100466971
:103FF0006C616D656E742073656E736F72005072C4
:10400000696E742066616E3A0045787472756465F5
:10401000722066616E3A0043616C69627261746914
:104020006E6720686F6D650053656C6674657374A8
:10403000206661696C6564202000416C6C20636FB0
:10404000727265637420202020202000436865631D
:104050006B696E672073656E736F727320004368BF
:1040600065636B696E6720686F74656E64202000FD
:10407000436865636B696E67206265642020202059
:104080002000436865636B696E67205A2061786918
:1040900073202000436865636B696E672059206157
:1040A000786973202000436865636B696E672058E8
:1040B0002061786973202000436865636B696E67CF
:1040C00020656E6473746F7073004572726F722036
:1040D0002D20737461746963206D656D6F72792032
:1040E000686173206265656E206F766572777269AC
:1040F0007474656E00436172642072656D6F7665DD
:1041000064005072757361206933204D4B322E3537
:1041100053204F4B2E004261636B002D2D2D2D2D12
:104120002D2D2D2D2D2D2D2D2D2D2D2D2D2D2D00EC
:104130000000000000110A044C43442073746174B1
:104140007573206368616E67656400534420636122
:1041500072642072656C6561736564006572726F6C
:10416000723A20756E6B6E6F776E206D6F76650A92
:10417000006E6F206D6F76650A00542D636F646565
:104180000A00756E6C6F61640A006C6F61640A00EE
:104190006D6D755F6765745F726573706F6E736563
:1041A000202D20626567696E206D6F76653A20006C
:1041B0006D6D755F6765745F726573706F6E736543
:1041C00028292072657475726E696E673A202564BD
:1041D0000A00556E6C6F6164696E672066696E696E
:1041E0007368656420320A00556E6C6F616420321A
:1041F0000A00556E6C6F6164696E672066696E694E
:104200007368656420310A00556E6C6F61642031FB
:104210000A004D4D5520737461727473207265737A
:10422000706F6E64696E670A004D4D55206E6F7435
:1042300020726573706F6E64696E670A0046696C00
:10424000616D656E74206F7574206F662072616E8B
:104250006765202564200A000000803F5555854190
:104260000000803F0000C841000000405555054255
:104270000000C03F000048420000204055558542E4
:10428000000070C1ABAAA642000060C10000A041BE
:104290000000C0C00000204100002041ABAA3A410C
:1042A000000020C15555D540000048C25555054273
:1042B0004D373031204534004D3730312045330003
:1042C0004D373031204532004D37303120453100F7
:1042D0004D3730312045300046696C616D656E7434
:1042E000206E72206F7574206F662072616E676534
:1042F0002100206661696C65642E0020737563631C
:1043000065656465642E004D4D552063616E5F6C7C
:104310006F61643A004164646974696F6E616C2016
:104320006C6F616420617474656D7074206E722EA0
:104330002025640A004D4D55204F4B2E20526573A9
:10434000756D696E672E2E2E004D4D55204F4B2EEC
:1043500020526573756D696E6720706F736974693B
:104360006F6E2E2E2E004D4D55204F4B2E20526538
:1043700073756D696E672074656D706572617475B3
:1043800072652E2E2E004669782074686520697348
:1043900073756520616E64207468656E2070726547
:1043A000737320627574746F6E206F6E204D4D555F
:1043B00020756E69742E0050726573732074686581
:1043C000206B6E6F6220746F20726573756D65204F
:1043D0006E6F7A7A6C652074656D70657261747544
:1043E00072652E004D4D55206E65656473207573A2
:1043F000657220617474656E74696F6E2E0043750A
:104400007474696E672066696C616D656E740050C6
:104410006C656173652072656D6F76652066696C89
:10442000616D656E7420616E64207468656E2070C5
:104430007265737320746865206B6E6F622E004521
:104440006A656374696E672066696C616D656E7418
:10445000004D4D55206C6F6164206661696C656428
:1044600020202020200025632533642F2564256328
:10447000004C6F6164696E672066696C616D656E82
:104480007400506C6561736520696E736572742089
:1044900066696C616D656E7420696E746F207468F6
:1044A000652065787472756465722C207468656E19
:1044B00020707265737320746865206B6E6F622064
:1044C000746F206C6F61642069742E00506C65619C
:1044D000736520696E736572742066696C616D65C1
:1044E0006E7420696E746F207468652066697273DB
:1044F000742074756265206F6620746865204D4D68
:10450000552C207468656E20707265737320746812
:1045100065206B6E6F6220746F206C6F6164206920
:10452000742E00546865207072696E74657220770D
:10453000696C6C207374617274207072696E746936
:104540006E672061207A69672D7A6167206C696ED9
:10455000652E20526F7461746520746865206B6EDF
:104560006F6220756E74696C20796F752072656159
:10457000636820746865206F7074696D616C206871
:1045800065696768742E20436865636B207468658D
:1045900020706963747572657320696E2074686534
:1045A0002068616E64626F6F6B202843616C696282
:1045B000726174696F6E2063686170746572292E10
:1045C0000053656C6563742074656D706572617409
:1045D000757265207768696368206D6174636865CA
:1045E0007320796F7572206D6174657269616C2ECC
:1045F0000043686F6F736520612066696C616D654B
:104600006E7420666F7220746865204669727374D8
:10461000204C617965722043616C696272617469D2
:104620006F6E20616E642073656C656374206974BD
:1046300020696E20746865206F6E2D7363726565E6
:104640006E206D656E752E004E6F7720492077695C
:104650006C6C2063616C696272617465206469735B
:1046600074616E6365206265747765656E20746938
:1046700070206F6620746865206E6F7A7A6C652092
:10468000616E64206865617462656420737572662A
:104690006163652E00596F752063616E20616C77D0
:1046A00061797320726573756D6520746865205734
:1046B000697A6172642066726F6D2043616C696211
:1046C000726174696F6E202D3E2057697A61726441
:1046D0002E00506C6561736520636865636B206FA5
:1046E00075722068616E64626F6F6B20616E64200A
:1046F000666978207468652070726F626C656D2ED3
:10470000205468656E20726573756D6520746865E8
:104710002057697A617264206279207265626F6FD6
:1047200074696E6720746865207072696E74657252
:104730002E00416C6C20697320646F6E652E2048DA
:1047400061707079207072696E74696E67210049BA
:104750006620796F7520686176652061646469748C
:10476000696F6E616C20737465656C207368656534
:1047700074732C2063616C69627261746520746863
:10478000656972207072657365747320696E205359
:10479000657474696E6773202D20485720536574C3
:1047A0007570202D20537465656C20736865657481
:1047B000732E00506C6561736520636C65616E20BB
:1047C0006865617462656420616E64207468656EFA
:1047D00020707265737320746865206B6E6F622E33
:1047E00000446F20796F752077616E7420746F209C
:1047F000726570656174206C617374207374657088
:1048000020746F20726561646A75737420646973C3
:1048100074616E6365206265747765656E206E6F86
:104820007A7A6C6520616E64206865617462656483
:104830003F0053656C656374206E6F7A7A6C6520F7
:10484000707265686561742074656D7065726174FD
:10485000757265207768696368206D617463686547
:104860007320796F7572206D6174657269616C2E49
:104870000049732066696C616D656E74206C6F61B0
:104880006465643F0049732066696C616D656E7490
:10489000206C6F616465643F004E6F77204920771C
:1048A000696C6C2070726568656174206E6F7A7ACD
:1048B0006C6520666F7220504C412E00492077694C
:1048C0006C6C2072756E207A2063616C6962726113
:1048D00074696F6E206E6F772E004E6F7720726551
:1048E0006D6F7665207468652074657374207072CE
:1048F000696E742066726F6D20737465656C2073C9
:10490000686565742E00506C656173652072656D15
:104910006F7665207368697070696E672068656C72
:10492000706572732066697273742E00492077690E
:104930006C6C2072756E2078797A2063616C696284
:10494000726174696F6E206E6F772E2049742077C4
:10495000696C6C2074616B6520617070726F782E69
:10496000203132206D696E732E0046697273742C8B
:1049700020492077696C6C2072756E207468652000
:1049800073656C667465737420746F206368656307
:104990006B206D6F737420636F6D6D6F6E2061732C
:1049A00073656D626C792070726F626C656D732EC9
:1049B0000048692C204920616D20796F7572204F65
:1049C000726967696E616C2050727573612069331A
:1049D000207072696E7465722E20576F756C64203A
:1049E000796F75206C696B65206D6520746F206729
:1049F0007569646520796F75207468726F75676872
:104A0000207468652073657475702070726F6365BB
:104A100073733F0053706F6F6C4A6F696E0043751C
:104A200074746572004669726D77617265004D6FCE
:104A300064656C00537472696374005761726E0030
:104A40004857205365747570004857205365747536
:104A50007000436865636B73004E6F7A7A6C6520F3
:104A6000642E00537465656C20736865657473000B
:104A70004E6F6E6500416C706861626574005469C8
:104A80006D6500536F7274004E6F726D616C0046FD
:104A90006C61736841697200534420636172640001
:104AA00054656D702E2063616C2E004D6573682017
:104AB000626564206C6576656C696E670048572096
:104AC00053657475700046616E7320636865636B2F
:104AD00000462E206175746F6C6F616400446973C9
:104AE00061626C65207374657070657273004D6FE0
:104AF000766520617869730054656D7065726174C4
:104B00007572650057697A61726420656E642073FE
:104B1000746174653A2025640A0057697A61726489
:104B20002073746174653A2025640A0045787065C5
:104B300072696D656E74616C0044697361626C6565
:104B4000206661726D206D6F6465004661726D2034
:104B50006E756D626572004D3834004D3234004D13
:104B60003233202573006175746F25692E67004705
:104B7000312045252D302E33662046323730300027
:104B80004D38330022206661696C65643A204275B5
:104B9000666665722066756C6C2100456E71756580
:104BA000696E6720746F207468652066726F6E741A
:104BB0003A2022004572726F723A002200456E71EF
:104BC0007565696E6720746F207468652066726F02
:104BD0006E743A2022006563686F3A004545505272
:104BE0004F4D204572726F72004D494E54454D50E5
:104BF00020424544206669786564004D494E54451D
:104C00004D5020484F54454E4420666978656400F5
:104C1000457872656D65207370616E206F662074D3
:104C20006865205A2076616C75657321006F6B0A88
:104C30000073746172740A004D4D553220666972BA
:104C40006D776172652076657273696F6E20696E2B
:104C500076616C69642E2052657175697265642095
:104C600076657273696F6E3A206275696C64206E46
:104C7000756D626572202564206F722068696768AF
:104C800065722E004D4D55203D3E20276F6B270A43
:104C9000004D4D55203D3E20276F6B270A002564AF
:104CA000004D4D55203D3E20276F6B272C2072650F
:104CB00073756D65207072696E740A004D4D5520D4
:104CC000726574727920617474656D7074206E728F
:104CD0002E2025640A004D4D55203D3E20276F6B48
:104CE000270A00410A004D4D55203C3D2027412711
:104CF0000A004D363030004D363030204155544F8B
:104D0000002568687500410A004D4D55203C3D2046
:104D10002741270A0050300A004D25640A004D4DF6
:104D200055203C3D20274D2564270A0057300A00B6
:104D30004D4D55203C3D20275730270A0053330A5C
:104D4000004D4D55203C3D20275333270A0052305B
:104D50000A004D4D55203C3D20275230270A004B7C
:104D600025640A004D4D55203C3D20274B256427E6
:104D70000A004525640A004D4D55203C3D2027453D
:104D80002564270A0055300A004D4D55203C3D2032
:104D9000275530270A0043300A004D4D55203C3D31
:104DA00020274330270A004C25640A004D4D55202A
:104DB0003C3D20274C2564270A005425640A004DF9
:104DC0004D55203C3D2027542564270A004D4D5564
:104DD000202D20454E41424C454400256868750011
:104DE00050300A004D310A004D4D55203C3D2027E2
:104DF0004D3127004D4D552076657273696F6E20D9
:104E000076616C6964004D4D55203D3E2027256438
:104E10006F6B270A0025750053320A004D4D55204F
:104E20003C3D2027533227004D4D55203D3E202745
:104E300025646F6B270A002575004D4D55206E6F58
:104E40007420726573706F6E64696E67202D2044E4
:104E5000495341424C45440053310A004D4D5520C1
:104E60003C3D2027533127004D4D55203D3E202706
:104E700073746172742700426564206C6576656C9A
:104E8000696E67206661696C65642E2053656E7378
:104E90006F72206469646E742074726967676572EA
:104EA0002E20446562726973206F6E206E6F7A7A6D
:104EB0006C653F2057616974696E6720666F722068
:104EC00072657365742E00506C6561736520757032
:104ED00064617465206669726D7761726520696EC0
:104EE00020796F7572204D4D55322E2057616974AF
:104EF000696E6720666F722072657365742E00504C
:104F000072696E746572206E6F7A7A6C652064695E
:104F1000616D65746572206469666665727320668A
:104F2000726F6D2074686520472D636F64652E2055
:104F3000506C6561736520636865636B2074686598
:104F40002076616C756520696E2073657474696E76
:104F500067732E205072696E742063616E63656C96
:104F60006C65642E005072696E746572206E6F7A83
:104F70007A6C65206469616D657465722064696628
:104F8000666572732066726F6D2074686520472DA8
:104F9000636F64652E20436F6E74696E75653F00A4
:104FA0002079303D25640A002078303D25640A00D0
:104FB0004F4B0A004552524F522061643D25640A0E
:104FC000002020207A303D25640A00207A303D25DB
:104FD000640A002079303D25640A002078303D25A0
:104FE000640A0078797A63616C5F66696E645F70E9
:104FF0006F696E745F63656E746572320A000000DB
:105000002100240027002A002D0030003300010178
:105010000000040107010A01000022002500280009
:105020002B002E00310034000201000005010801B0
:105030000B01000020002300260029002C002F0077
:105040003200000100000301060109010505050504
:10505000070508080808020202020A0A08080404F0
:10506000040401010101010101010303030303031E
:105070000303040707070C0C0C0C0C0C0C0C0202AD
:10508000020206060606060606060B0B0B0B0B0BAA
:105090000B0B07070A0A0A0A0A0A05050504040495
:1050A000080801021020200808102040102040802D
:1050B00002010201080402010102040810204080DC
:1050C000804020100804020180040201804020106A
:1050D00008040201080402010102040810204080B3
:1050E00001020408102040801008040880102040AD
:1050F000044080102040048000000A0B02090C0DBF
:105100000E0807030401000000000000000000007A
:10511000000000000000000000000000000000008F
:10512000000000001211100000000000000000004C
:10513000000000000000000000000000000000006F
:10514000000000000000000000000000000000005F
:105150002110422063308440A550C660E77008816A
:1051600029914AA16BB18CC1ADD1CEE1EFF13112E1
:10517000100273325222B5529442F772D6623993BA
:1051800018837BB35AA3BDD39CC3FFF3DEE3622431
:10519000433420040114E664C774A44485546AA50A
:1051A0004BB528850995EEE5CFF5ACC58DD55336C1
:1051B000722611163006D776F6669556B4465BB75A
:1051C0007AA719973887DFF7FEE79DD7BCC7C44891
:1051D000E5588668A7784008611802282338CCC9AA
:1051E000EDD98EE9AFF9488969990AA92BB9F55A21
:1051F000D44AB77A966A711A500A333A122AFDDBFA
:10520000DCCBBFFB9EEB799B588B3BBB1AABA66CF0
:10521000877CE44CC55C222C033C600C411CAEED49
:105220008FFDECCDCDDD2AAD0BBD688D499D977E00
:10523000B66ED55EF44E133E322E511E700E9FFF99
:10524000BEEFDDDFFCCF1BBF3AAF599F788F88914F
:10525000A981CAB1EBA10CD12DC14EF16FE1801033
:10526000A100C230E3200450254046706760B98336
:105270009893FBA3DAB33DC31CD37FE35EF3B10283
:105280009012F322D2323542145277625672EAB546
:10529000CBA5A89589856EF54FE52CD50DC5E234D3
:1052A000C324A01481046674476424540544DBA716
:1052B000FAB79987B8975FE77EF71DC73CD7D32623
:1052C000F2369106B01657667676154634564CD9A6
:1052D0006DC90EF92FE9C899E9898AB9ABA9445873
:1052E000654806782768C018E1088238A3287DCB76
:1052F0005CDB3FEB1EFBF98BD89BBBAB9ABB754AC3
:10530000545A376A167AF10AD01AB32A923A2EFD05
:105310000FED6CDD4DCDAABD8BADE89DC98D267C12
:10532000076C645C454CA23C832CE01CC10C1FEF55
:105330003EFF5DCF7CDF9BAFBABFD98FF89F176E62
:10534000367E554E745E932EB23ED10EF01E7C3CDE
:105350003E3F2F2A225C0043616E6E6F7420656EA3
:10536000746572207375626469723A20004D32343C
:10537000004D323320257300052E2E0046696C65E2
:1053800020696E636F6D706C6574652E20436F6E5F
:1053900074696E756520616E797761793F004D6142
:1053A000696E004B494C4C45442E20005072696E8A
:1053B0007465722068616C7465642E206B696C6C16
:1053C00028292063616C6C656421004B494C4C3A80
:1053D0002025640A004D32323120496E76616C69B5
:1053E0006420657874727564657220004D323138BE
:1053F00020496E76616C69642065787472756465A5
:105400007220004D31303920496E76616C6964201C
:10541000657874727564657220004D3130352049AD
:105420006E76616C6964206578747275646572204B
:10543000004D31303420496E76616C6964206578A6
:10544000747275646572200020573A0020453A0056
:10545000543A005A206C6976652061646A757374E9
:10546000206F7574206F662072616E67652E205301
:10547000657474696E6720746F20302E20436C69E8
:10548000636B20746F20636F6E74696E75652E0098
:105490005A206C6976652061646A757374206F7533
:1054A00074206F662072616E67652E205365747478
:1054B000696E6720746F20300020423A0020453A20
:1054C00000543A00506C656173652077616974001F
:1054D00057616974696E6720666F72206E6F7A7AA1
:1054E0006C6520616E642062656420636F6F6C6917
:1054F0006E670053656C662074657374204F4B00B3
:1055000053656C66207465737420737461727420C3
:105510002000457874722066616E20737065656442
:105520003A202564200A005072696E742066616E0C
:105530002073706565643A202564200A0054657301
:105540007420313A0A004D3834006C63645F73652F
:105550006C66636865636B5F617869732025642C92
:105560002025640A0047312058352E302045342E3E
:10557000302046313030302E30004731205A302E26
:1055800032302046313030302E300047312058350F
:10559000352E30204532352046313430302E300023
:1055A000473120592D322E302046313030302E30C8
:1055B00000473120583234302E30204532352E30DD
:1055C000202046323230302E3000473932204530EC
:1055D0002E30004731205A302E33204631303030C3
:1055E0002E30004731205835352E302045382E30AA
:1055F0002046323030302E300047312058352E30A2
:10560000204533322E302046313830302E3000479E
:1056100031205835352E30204533322E302046315A
:105620003037332E30004731204634303030004D93
:10563000323034205331303030004731205A352059
:1056400046373230302E30303000473120452D3152
:105650002E35303030302046323130302E30303040
:105660003030004D38330047393000473231004781
:1056700039322045302E30004731205835302059FE
:1056800035352045332E36323737330047312058F1
:10569000323030205935352045302E3439333836C4
:1056A0000047312058323030205937352045332ECD
:1056B00036323737330047312058353020593735A7
:1056C0002045302E343933383600473120583530B4
:1056D000205939352045332E36323737330047319C
:1056E0002058323030205939352045302E34393366
:1056F000383600473120583230302059313135208A
:1057000045332E3632373733004731205835302075
:10571000593131352045302E343933383600473150
:105720002058353020593133352045332E36323725
:10573000373300473120583230302059313335204B
:1057400045302E363631373400473120583230302C
:1057500020593135352045322E3632373733004720
:10576000312058313030205931353520453200470D
:10577000312058373520593135352045322E350006
:105780004731204631303830004731205A302E31F1
:1057900035302046373230302E303030004731201F
:1057A0005835302059313535004739322045302EB3
:1057B0003000473238004D313039004D313930003A
:1057C0004D31303700542564004731205A302E3493
:1057D0002046313030302E3000473120592D332EC5
:1057E000302046313030302E30004D3833004731D4
:1057F00020583130302E30204531322E3520463180
:105800003030302E30004731205836302E30204591
:10581000392E302046313030302E30000F56F955B9
:10582000E355D355CA55B155A0558B557A55655595
:105830006F566B56675663564A563A562F5626563B
:10584000473120583530205933352045252D2E330A
:1058500066009D57895780576F575F574957335791
:105860001E570957F356DE56CA56B656A1568C56E1
:105870007856496E76616C696420504944206361B2
:105880006C2E20726573756C74732E204E6F7420AD
:1058900073746F72656420746F20454550524F4D8C
:1058A0002E004D353030004731205A3135204631F9
:1058B00035303000473931004731205835302059D4
:1058C00031393020453020463730303000473930CC
:1058D000004D3834004D37303220430047312058D6
:1058E00031302059313830204634303030004731A3
:1058F000205A31302046313330302E303030004D98
:10590000313430205330004D313034205330004793
:105910003120452D302E3037353030204632313071
:10592000302E3030303030004D3130370025530AC2
:1059300020252D31362E313653252D33640A20256E
:105940002D31362E313653252D33640025530A2050
:10595000252D31362E313653252D33640A20252D41
:1059600031362E313653252D33640A20252D31361C
:105970002E313653252D33640025530A20252D3131
:10598000362E313653252D33640A25530A20252D12
:1059900031362E313653252D33640A0020257325E8
:1059A000336401200A004D31313720466972737427
:1059B000206C617965722063616C2E00504944202F
:1059C00063616C2E2066696E697368656400504976
:1059D000442063616C2E20202020202020202020C5
:1059E00020005072696E7420706175736564005098
:1059F00072696E742046414E004E6F7A7A6C652053
:105A000046414E00546F74616C004C617374207099
:105A100072696E74004D4D55206C6F616420666133
:105A2000696C73004D4D55206661696C73004C6163
:105A30007374207072696E74206661696C7572652A
:105A400073004D4D5520706F776572206661696CEB
:105A500073004D4D55206C6F6164206661696C73F5
:105A6000004D4D55206661696C7300546F74616C14
:105A7000206661696C757265730046696C616D2E94
:105A80002072756E6F75747300546F74616C20664C
:105A900061696C757265730046696C616D2E207268
:105AA000756E6F757473004C617374207072696EDB
:105AB00074206661696C757265730050494E44418B
:105AC000002F2F20616374696F6E3A706175736582
:105AD00064002573202534642052504D0A2573201C
